:100000000C9462000C948A000C948A000C948A0070
:100010000C948A000C948A000C948A000C948A0038
:100020000C948A000C948A000C948A000C948A0028
:100030000C948A000C948A000C948A000C948A0018
:100040000C941E020C948A000C948E020C9468028C
:100050000C948A000C948A000C948A000C948A00F8
:100060000C948A000C948A000000000023002600F3
:10007000290000000000240027002A0000000000E2
:10008000250028002B0004040404040404040202D4
:100090000202020203030303030301020408102007
:1000A0004080010204081020010204081020000012
:1000B0000008000201000003040700000000000027
:1000C0000000050311241FBECFEFD8E0DEBFCDBF77
:1000D00011E0A0E0B1E0E0E6F9E002C005900D9289
:1000E000A033B107D9F721E0A0E3B1E001C01D9230
:1000F000A83DB207E1F710E0C2E6D0E004C02197C6
:10010000FE010E94A304C136D107C9F70E94320341
:100110000C94AE040C940000E5EBF0E09491E1EA5D
:10012000F0E02491EDE8F0E0E491EE2309F43CC026
:10013000992339F1933091F038F49130A9F092304D
:1001400001F594B59F7D12C0973091F09830A1F0E1
:100150009430B9F4909180009F7D03C0909180000D
:100160009F77909380000DC094B59F7794BD09C090
:100170009091B0009F7703C09091B0009F7D9093C5
:10018000B000F0E0EE0FFF1FE458FF4FA591B491CF
:100190009FB7F894811104C08C912095282302C048
:1001A000EC912E2B2C939FBF08953FB7F89480912C
:1001B000370190913801A0913901B0913A0126B5EB
:1001C000A89B05C02F3F19F00196A11DB11D3FBF8F
:1001D000BA2FA92F982F8827820F911DA11DB11D1D
:1001E000BC01CD0142E0660F771F881F991F4A9519
:1001F000D1F70895CF92DF92EF92FF920F931F9362
:10020000CF93DF936C017A018B01C0E0D0E0CE1573
:10021000DF0581F0D8016D918D01D601ED91FC9142
:100220000190F081E02DC6010995892B11F02196EE
:10023000EECF7E01C701DF91CF911F910F91FF900B
:10024000EF90DF90CF900895089580E090E00895BA
:10025000FC01538D448D252F30E0842F90E0821BCC
:10026000930B541710F0CF96089501970895FC0151
:10027000918D828D981761F0828DDF01A80FB11DDD
:100280005D968C91928D9F5F9F73928F90E0089501
:100290008FEF9FEF0895FC01918D828D981731F0BB
:1002A000828DE80FF11D858D90E008958FEF9FEF0F
:1002B0000895FC01918D228D892F90E0805C9F4FE5
:1002C000821B91098F73992708958BE391E00E9417
:1002D000590121E0892B09F420E0822F0895FC01C7
:1002E000848DDF01A80FB11DA35ABF4F2C91848DBF
:1002F00090E001968F739927848FA689B7892C93F4
:10030000A089B1898C91837080648C93938D848D46
:10031000981306C00288F389E02D80818F7D808349
:100320000895EF92FF920F931F93CF93DF93EC0109
:1003300081E0888F9B8D8C8D981305C0E889F989A1
:10034000808185FD26C0F62E0B8D10E00F5F1F4FBC
:100350000F731127E02E8C8DE8120CC00FB607FC2E
:10036000FACFE889F989808185FFF5CFCE010E9417
:100370006F01F1CF8B8DFE01E80FF11DE35AFF4FA6
:10038000F0829FB7F8940B8FEA89FB8980818062A5
:100390000AC09FB7F894EE89FF896083E889F989DC
:1003A00080818370806480839FBF81E090E0DF91D3
:1003B000CF911F910F91FF90EF900895CF93DF930E
:1003C000EC01888D8823C9F0EA89FB89808185FD4D
:1003D00005C0A889B9898C9186FD0FC00FB607FCAE
:1003E000F5CF808185FFF2CFA889B9898C9185FFEF
:1003F000EDCFCE010E946F01E7CFDF91CF9108953D
:1004000080E090E0892B29F00E94650181110C9415
:1004100000000895009769F0FC0101900020E9F7C1
:100420003197AF01481B590BBC018BE391E00C9451
:10043000FA0080E090E008950E94A9041F920F92B4
:100440000FB60F9211242F933F938F939F93AF93E7
:10045000BF938091330190913401A0913501B09107
:1004600036013091320123E0230F2D3720F401961D
:10047000A11DB11D05C026E8230F0296A11DB11DC7
:10048000209332018093330190933401A09335017E
:10049000B09336018091370190913801A0913901D4
:1004A000B0913A010196A11DB11D8093370190933F
:1004B0003801A0933901B0933A01BF91AF919F9158
:1004C0008F913F912F910F900FBE0F901F90189515
:1004D0001F920F920FB60F9211242F933F934F93B9
:1004E0005F936F937F938F939F93AF93BF93EF939C
:1004F000FF938BE391E00E946F01FF91EF91BF9119
:10050000AF919F918F917F916F915F914F913F91AB
:100510002F910F900FBE0F901F9018951F920F9262
:100520000FB60F9211242F938F939F93EF93FF9306
:10053000E0914B01F0914C018081E0915101F091EB
:10054000520182FD12C09081809154018F5F8F73A0
:1005500020915501821751F0E0915401F0E0E55CE3
:10056000FE4F958F8093540101C08081FF91EF91E0
:100570009F918F912F910F900FBE0F901F90189504
:10058000CF92DF92EF92FF920F931F93E82FF92FF4
:1005900005C0015011092109310961F190819623AB
:1005A0009417B9F305C0015011092109310911F15E
:1005B000908196239413F7CFC12CD12CE12CF12CF0
:1005C0000AC08FEFC81AD80AE80AF80A0C151D05E8
:1005D0002E053F0579F080818623841791F36C2DD9
:1005E0007D2D8E2D9F2D1F910F91FF90EF90DF900D
:1005F000CF90089560E070E080E090E01F910F914F
:10060000FF90EF90DF90CF900895EBE3F1E013823D
:10061000128288EE93E0A0E0B0E084839583A68305
:10062000B78384E091E09183808385EC90E09587A7
:10063000848784EC90E09787868780EC90E0918BAC
:10064000808B81EC90E0938B828B82EC90E0958B99
:10065000848B86EC90E0978B868B118E128E138E96
:10066000148E0895CF93DF93CDB7DEB7A1970FB661
:10067000F894DEBF0FBECDBF789484B5826084BD90
:1006800084B5816084BD85B5826085BD85B5816096
:1006900085BD80916E00816080936E001092810014
:1006A00080918100826080938100809181008160CF
:1006B0008093810080918000816080938000809190
:1006C000B10084608093B1008091B000816080931C
:1006D000B00080917A00846080937A0080917A00E3
:1006E000826080937A0080917A00816080937A00A2
:1006F00080917A00806880937A001092C100E09126
:100700004B01F0914C0182E08083E0914701F09130
:1007100048011082E0914901F0914A018FEC8083F9
:1007200010925301E0914F01F091500186E08083D7
:10073000E0914D01F0914E01808180618083E091D4
:100740004D01F0914E01808188608083E0914D01E0
:10075000F0914E01808180688083E0914D01F0919D
:100760004E0180818F7D808363E0262E312C7AE0DC
:10077000872E912CA12CB12C239A2B98C101019783
:10078000F1F72B9A8FE090E00197F1F72B982398DF
:10079000E5EAF0E06491E1E9F0E08491E82FF0E02F
:1007A000EE0FFF1FE859FF4F8591949100E412E48A
:1007B0002FE030E0462F0E94C002611571058105CF
:1007C000910539F0DC01CB010196A11DB11DBF706F
:1007D00003C080E090E0DC0164E970E00E946D04F9
:1007E00070933101609330016A30710530F481E01B
:1007F0000E948C0082E191E005C080E00E948C00A4
:1008000082E291E00E940A028FE191E00E940A02D6
:10081000209130013091310140E050E019A27E0179
:10082000F1E2EF0EF11CCA01B901A50194010E9489
:100830008104605DF70162937F0121153105410557
:10084000510589F7CF010E940A028FE191E00E94D1
:100850000A020E94D5006B017C0148EC442E512C09
:10086000612C712C0E94D500DC01CB018C199D09F3
:10087000AE09BF09883E9340A105B10598F3F1E0A8
:100880004F1A51086108710828EEC20E23E0D21EEB
:10089000E11CF11C411451046104710419F7E1EAEF
:1008A000F0E02491EDE8F0E08491882399F090E065
:1008B000880F991FFC01EE58FF4FA591B491FC01E0
:1008C000E458FF4F859194919FB7F8948C91282B11
:1008D0002C939FBF0E9400024FCFAA1BBB1B51E16C
:1008E00007C0AA1FBB1FA617B70710F0A61BB70BA0
:1008F000881F991F5A95A9F780959095BC01CD0145
:100900000895A1E21A2EAA1BBB1BFD010DC0AA1F50
:10091000BB1FEE1FFF1FA217B307E407F50720F068
:10092000A21BB30BE40BF50B661F771F881F991FE3
:100930001A9469F760957095809590959B01AC012C
:10094000BD01CF010895EE0FFF1F0590F491E02D3A
:10095000099481E090E0F8940C94AE04F894FFCFF1
:10096000000000009101FA002801DE015901370161
:100970004B01566962726174696F6E204F6E000D93
:100980000A00566962726174696F6E204F66660074
:00000001FF
