:100000000C9462000C948A000C948A000C948A0070
:100010000C948A000C948A000C948A000C948A0038
:100020000C948A000C948A000C948A000C948A0028
:100030000C948A000C948A000C948A000C948A0018
:100040000C945E020C948A000C94CE020C94A802CC
:100050000C948A000C948A000C948A000C948A00F8
:100060000C948A000C948A000000000023002600F3
:10007000290000000000240027002A0000000000E2
:10008000250028002B0004040404040404040202D4
:100090000202020203030303030301020408102007
:1000A0004080010204081020010204081020000012
:1000B0000008000201000003040700000000000027
:1000C0000000450311241FBECFEFD8E0DEBFCDBF37
:1000D00011E0A0E0B1E0E4EDF9E002C005900D927E
:1000E000AE31B107D9F721E0AEE1B1E001C01D9218
:1000F000A63CB207E1F710E0C2E6D0E004C02197C9
:10010000FE010E94DD04C136D107C9F70E947203C7
:100110000C94E8040C94000090E0FC01E255FF4FC1
:100120002491FC01E656FF4F3491FC01EA57FF4F42
:10013000E491EE2309F43CC0222339F1233091F0FD
:1001400038F42130A9F0223001F584B58F7D12C03A
:10015000273091F02830A1F02430B9F4809180004C
:100160008F7D03C0809180008F77809380000DC0C9
:1001700084B58F7784BD09C08091B0008F7703C0AC
:100180008091B0008F7D8093B000F0E0EE0FFF1FF4
:10019000E458FF4FA591B4919FB7F894611104C042
:1001A0008C913095382302C0EC913E2B3C939FBF3D
:1001B0000895CF93DF9390E0FC01E656FF4F249122
:1001C000FC01EA57FF4F8491882361F190E0880F8A
:1001D000991FFC01EE58FF4FC591D491FC01E458E2
:1001E000FF4FA591B491611109C09FB7F894888120
:1001F000209582238883EC912E230BC0623061F41A
:100200009FB7F8948881322F309583238883EC91AF
:100210002E2B2C939FBF06C08FB7F894E8812E2B0E
:1002200028838FBFDF91CF9108953FB7F8948091D5
:10023000250190912601A0912701B091280126B5B2
:10024000A89B05C02F3F19F00196A11DB11D3FBF0E
:10025000BA2FA92F982F8827820F911DA11DB11D9C
:10026000BC01CD0142E0660F771F881F991F4A9598
:10027000D1F70895CF92DF92EF92FF920F931F93E1
:10028000CF93DF936C017A018B01C0E0D0E0CE15F3
:10029000DF0581F0D8016D918D01D601ED91FC91C2
:1002A0000190F081E02DC6010995892B11F021966E
:1002B000EECF7E01C701DF91CF911F910F91FF908B
:1002C000EF90DF90CF900895089580E090E008953A
:1002D000FC01538D448D252F30E0842F90E0821B4C
:1002E000930B541710F0CF96089501970895FC01D1
:1002F000918D828D981761F0828DDF01A80FB11D5D
:100300005D968C91928D9F5F9F73928F90E0089580
:100310008FEF9FEF0895FC01918D828D981731F03A
:10032000828DE80FF11D858D90E008958FEF9FEF8E
:100330000895FC01918D228D892F90E0805C9F4F64
:10034000821B91098F739927089589E291E00E9499
:10035000990121E0892B09F420E0822F0895FC0106
:10036000848DDF01A80FB11DA35ABF4F2C91848D3E
:1003700090E001968F739927848FA689B7892C9373
:10038000A089B1898C91837080648C93938D848DC6
:10039000981306C00288F389E02D80818F7D8083C9
:1003A0000895EF92FF920F931F93CF93DF93EC0189
:1003B00081E0888F9B8D8C8D981305C0E889F98921
:1003C000808185FD26C0F62E0B8D10E00F5F1F4F3C
:1003D0000F731127E02E8C8DE8120CC00FB607FCAE
:1003E000FACFE889F989808185FFF5CFCE010E9497
:1003F000AF01F1CF8B8DFE01E80FF11DE35AFF4FE6
:10040000F0829FB7F8940B8FEA89FB898081806224
:100410000AC09FB7F894EE89FF896083E889F9895B
:1004200080818370806480839FBF81E090E0DF9152
:10043000CF911F910F91FF90EF900895CF93DF938D
:10044000EC01888D8823C9F0EA89FB89808185FDCC
:1004500005C0A889B9898C9186FD0FC00FB607FC2D
:10046000F5CF808185FFF2CFA889B9898C9185FF6E
:10047000EDCFCE010E94AF01E7CFDF91CF9108957C
:1004800080E090E0892B29F00E94A50181110C9455
:1004900000000895009769F0FC0101900020E9F741
:1004A0003197AF01481B590BBC0189E291E00C94D4
:1004B0003A0180E090E008950E94E3041F920F92B9
:1004C0000FB60F9211242F933F938F939F93AF9367
:1004D000BF938091210190912201A0912301B091BD
:1004E00024013091200123E0230F2D3720F40196C1
:1004F000A11DB11D05C026E8230F0296A11DB11D47
:10050000209320018093210190932201A093230145
:10051000B09324018091250190912601A09127019B
:10052000B09128010196A11DB11D809325019093E2
:100530002601A0932701B0932801BF91AF919F910D
:100540008F913F912F910F900FBE0F901F90189594
:100550001F920F920FB60F9211242F933F934F9338
:100560005F936F937F938F939F93AF93BF93EF931B
:10057000FF9389E291E00E94AF01FF91EF91BF915B
:10058000AF919F918F917F916F915F914F913F912B
:100590002F910F900FBE0F901F9018951F920F92E2
:1005A0000FB60F9211242F938F939F93EF93FF9386
:1005B000E0913901F0913A018081E0913F01F091A1
:1005C000400182FD12C09081809142018F5F8F7344
:1005D00020914301821751F0E0914201F0E0E75D84
:1005E000FE4F958F8093420101C08081FF91EF9172
:1005F0009F918F912F910F900FBE0F901F90189584
:10060000CF92DF92EF92FF920F931F93E82FF92F73
:1006100005C0015011092109310961F1908196232A
:100620009417B9F305C0015011092109310911F1DD
:10063000908196239413F7CFC12CD12CE12CF12C6F
:100640000AC08FEFC81AD80AE80AF80A0C151D0567
:100650002E053F0579F080818623841791F36C2D58
:100660007D2D8E2D9F2D1F910F91FF90EF90DF908C
:10067000CF90089560E070E080E090E01F910F91CE
:10068000FF90EF90DF90CF900895E9E2F1E01382C0
:10069000128288EE93E0A0E0B0E084839583A68385
:1006A000B78384E091E09183808385EC90E0958727
:1006B000848784EC90E09787868780EC90E0918B2C
:1006C000808B81EC90E0938B828B82EC90E0958B19
:1006D000848B86EC90E0978B868B118E128E138E16
:1006E000148E0895CF93DF93CDB7DEB7A1970FB6E1
:1006F000F894DEBF0FBECDBF789484B5826084BD10
:1007000084B5816084BD85B5826085BD85B5816015
:1007100085BD80916E00816080936E001092810093
:10072000809181008260809381008091810081604E
:10073000809381008091800081608093800080910F
:10074000B10084608093B1008091B000816080939B
:10075000B00080917A00846080937A0080917A0062
:10076000826080937A0080917A00816080937A0021
:1007700080917A00806880937A001092C100E091A5
:100780003901F0913A0182E08083E0913501F091E6
:1007900036011082E0913701F09138018FEC8083AF
:1007A00010924101E0913D01F0913E0186E080838D
:1007B000E0913B01F0913C01808180618083E09178
:1007C0003B01F0913C01808188608083E0913B0196
:1007D000F0913C01808180688083E0913B01F09141
:1007E0003C0180818F7D808323E0222E312C3AE0F2
:1007F000832E912CA12CB12C61E08BE00E94D900BA
:1008000060E08BE00E948C00C1010197F1F761E08C
:100810008BE00E948C008FE090E00197F1F760E0A0
:100820008BE00E948C0060E08BE00E94D900E5EA3A
:10083000F0E06491E1E9F0E08491E82FF0E0EE0F60
:10084000FF1FE859FF4F8591949100E412E42FE0D7
:1008500030E0462F0E940003611571058105910566
:1008600039F0DC01CB010196A11DB11DBF7003C0A1
:1008700080E090E0DC0164E970E00E94A7047093DE
:100880001F0160931E016A30710538F461E087E052
:100890000E948C0082E191E006C060E087E00E9447
:1008A0008C0088E191E00E944A0285E191E00E947B
:1008B0004A0220911E0130911F0140E050E019A230
:1008C0007E01F1E2EF0EF11CCA01B901A50194010C
:1008D0000E94BB04605DF70162937F012115310521
:1008E0004105510589F7CF010E944A0285E191E057
:1008F0000E944A020E9415016B017C0188EC482E7F
:10090000512C612C712C0E941501DC01CB018C193A
:100910009D09AE09BF09883E9340A105B10598F332
:10092000F1E04F1A51086108710828EEC20E23E069
:10093000D21EE11CF11C411451046104710419F729
:1009400061E087E00E94D9000E94400255CFAA1BB7
:10095000BB1B51E107C0AA1FBB1FA617B70710F0AA
:10096000A61BB70B881F991F5A95A9F780959095DC
:10097000BC01CD010895A1E21A2EAA1BBB1BFD01EB
:100980000DC0AA1FBB1FEE1FFF1FA217B307E4076E
:10099000F50720F0A21BB30BE40BF50B661F771FC6
:1009A000881F991F1A9469F76095709580959095A6
:1009B0009B01AC01BD01CF010895EE0FFF1F059013
:1009C000F491E02D099481E090E0F8940C94E8040F
:0409D000F894FFCFC9
:1009D40000000000D1013A0168011E02990177016B
:0E09E4008B014841000D0A00627945212E006A
:00000001FF
