:100000000C9462000C948A000C948A000C948A0070
:100010000C948A000C948A000C948A000C948A0038
:100020000C948A000C948A000C948A000C948A0028
:100030000C948A000C948A000C948A000C948A0018
:100040000C940C020C948A000C947C020C945602C2
:100050000C948A000C948A000C948A000C948A00F8
:100060000C948A000C948A000000000024002700F1
:100070002A000000000023002600290000000000E4
:10008000250028002B0004040404040404040202D4
:100090000202020203030303030301020408102007
:1000A0004080010204081020010204081020000012
:1000B0000008000201000003040700000000000027
:1000C0000000F30211241FBECFEFD8E0DEBFCDBF8A
:1000D00011E0A0E0B1E0ECE6F9E002C005900D927D
:1000E000A631B107D9F721E0A6E1B1E001C01D9228
:1000F000AC3BB207E1F710E0C2E6D0E004C02197C4
:10010000FE010E94A904C136D107C9F70E9420034D
:100110000C94B4040C940000E9EBF0E09491E5EA4F
:10012000F0E02491E1E9F0E0E491EE2309F43CC031
:10013000992339F1933091F038F49130A9F092304D
:1001400001F594B59F7D12C0973091F09830A1F0E1
:100150009430B9F4909180009F7D03C0909180000D
:100160009F77909380000DC094B59F7794BD09C090
:100170009091B0009F7703C09091B0009F7D9093C5
:10018000B000F0E0EE0FFF1FE458FF4FA591B491CF
:100190009FB7F894811104C08C912095282302C048
:1001A000EC912E2B2C939FBF08953FB7F89480912C
:1001B000B8019091B901A091BA01B091BB0126B5E7
:1001C000A89B05C02F3F19F00196A11DB11D3FBF8F
:1001D000BA2FA92F982F8827820F911DA11DB11D1D
:1001E000BC01CD0142E0660F771F881F991F4A9519
:1001F000D1F70895CF92DF92EF92FF920F931F9362
:10020000CF93DF936C017A018B01C0E0D0E0CE1573
:10021000DF0581F0D8016D918D01D601ED91FC9142
:100220000190F081E02DC6010995892B11F02196EE
:10023000EECF7E01C701DF91CF911F910F91FF900B
:10024000EF90DF90CF900895089580E090E00895BA
:10025000FC01538D448D252F30E0842F90E0821BCC
:10026000930B541710F0CF96089501970895FC0151
:10027000918D828D981761F0828DDF01A80FB11DDD
:100280005D968C91928D9F5F9F73928F90E0089501
:100290008FEF9FEF0895FC01918D828D981731F0BB
:1002A000828DE80FF11D858D90E008958FEF9FEF0F
:1002B0000895FC01918D228D892F90E0805C9F4FE5
:1002C000821B91098F739927089586E191E00E941E
:1002D000590121E0892B09F420E0822F0895FC01C7
:1002E000848DDF01A80FB11DA35ABF4F2C91848DBF
:1002F00090E001968F739927848FA689B7892C93F4
:10030000A089B1898C91837080648C93938D848D46
:10031000981306C00288F389E02D80818F7D808349
:100320000895EF92FF920F931F93CF93DF93EC0109
:1003300081E0888F9B8D8C8D981305C0E889F989A1
:10034000808185FD26C0F62E0B8D10E00F5F1F4FBC
:100350000F731127E02E8C8DE8120CC00FB607FC2E
:10036000FACFE889F989808185FFF5CFCE010E9417
:100370006F01F1CF8B8DFE01E80FF11DE35AFF4FA6
:10038000F0829FB7F8940B8FEA89FB8980818062A5
:100390000AC09FB7F894EE89FF896083E889F989DC
:1003A00080818370806480839FBF81E090E0DF91D3
:1003B000CF911F910F91FF90EF900895CF93DF930E
:1003C000EC01888D8823C9F0EA89FB89808185FD4D
:1003D00005C0A889B9898C9186FD0FC00FB607FCAE
:1003E000F5CF808185FFF2CFA889B9898C9185FFEF
:1003F000EDCFCE010E946F01E7CFDF91CF9108953D
:1004000080E090E0892B29F00E94650181110C9415
:10041000000008950E94AF041F920F920FB60F9232
:1004200011242F933F938F939F93AF93BF9380910A
:10043000B4019091B501A091B601B091B70130918E
:10044000B30123E0230F2D3720F40196A11DB11D28
:1004500005C026E8230F0296A11DB11D2093B3010C
:100460008093B4019093B501A093B601B093B70106
:100470008091B8019091B901A091BA01B091BB01EE
:100480000196A11DB11D8093B8019093B901A0936D
:10049000BA01B093BB01BF91AF919F918F913F91F2
:1004A0002F910F900FBE0F901F9018951F920F92D3
:1004B0000FB60F9211242F933F934F935F936F9337
:1004C0007F938F939F93AF93BF93EF93FF9386E1B7
:1004D00091E00E946F01FF91EF91BF91AF919F91C9
:1004E0008F917F916F915F914F913F912F910F90DD
:1004F0000FBE0F901F9018951F920F920FB60F927C
:1005000011242F938F939F93EF93FF93E0912601F4
:10051000F09127018081E0912C01F0912D0182FD65
:1005200012C0908180912F018F5F8F7320913001D5
:10053000821751F0E0912F01F0E0EA5EFE4F958FB7
:1005400080932F0101C08081FF91EF919F918F9146
:100550002F910F900FBE0F901F901895CF92DF92A2
:10056000EF92FF920F931F93E82FF92F05C00150D0
:1005700011092109310961F1908196239417B9F38A
:1005800005C0015011092109310911F1908196230B
:100590009413F7CFC12CD12CE12CF12C0AC08FEF92
:1005A000C81AD80AE80AF80A0C151D052E053F05D9
:1005B00079F080818623841791F36C2D7D2D8E2D0B
:1005C0009F2D1F910F91FF90EF90DF90CF90089596
:1005D00060E070E080E090E01F910F91FF90EF905D
:1005E000DF90CF900895E6E1F1E01382128288EE69
:1005F00093E0A0E0B0E084839583A683B78384E092
:1006000091E09183808385EC90E09587848784ECEA
:1006100090E09787868780EC90E0918B808B81ECCF
:1006200090E0938B828B82EC90E0958B848B86ECB0
:1006300090E0978B868B118E128E138E148E0895F8
:10064000CF93DF93CDB7DEB7A1970FB6F894DEBF97
:100650000FBECDBF789484B5826084BD84B58160BF
:1006600084BD85B5826085BD85B5816085BD80917D
:100670006E00816080936E001092810080918100F5
:1006800082608093810080918100816080938100ED
:10069000809180008160809380008091B1008460AF
:1006A0008093B1008091B00081608093B000809110
:1006B0007A00846080937A0080917A0082608093CF
:1006C0007A0080917A00816080937A0080917A002C
:1006D000806880937A001092C100E0912601F09129
:1006E000270182E08083E0912201F09123011082B2
:1006F000E0912401F09125018FEC808310922E016E
:10070000E0912A01F0912B0186E08083E09128019D
:10071000F0912901808180618083E0912801F0912E
:100720002901808188608083E0912801F09129016E
:10073000808180688083E0912801F0912901808187
:100740008F7D808355EAC52E50E0D52E61E9E62ED7
:1007500060E0F62E74E9272E312CF6012491F70182
:100760008491882399F090E0880F991FFC01E85943
:10077000FF4FA591B491FC01E458FF4F85919491EE
:100780009FB7F8948C91282B2C939FBF80E00E94F8
:100790008C0083E090E00197F1F781E00E948C00EB
:1007A0008FE090E00197F1F780E00E948C00F60165
:1007B0002491F70184918823C9F090E0880F991F54
:1007C000FC01E859FF4FA591B491FC01E458FF4F9B
:1007D000459154913FB7F8949C91822F809598232E
:1007E0009C93FA019081892380833FBFF601649135
:1007F000F7018491E82FF0E0EE0FFF1FEE58FF4F56
:100800008591949100E412E42FE030E0462F0E949D
:10081000AE02611571058105910539F0DC01CB014E
:100820000196A11DB11DBF7003C080E090E0DC0106
:10083000B1010E9473049B0140E050E019A25E01E7
:10084000F1E2AF0EB11CCA01B9012AE030E040E08C
:1008500050E00E948704605DF50162935F012115FD
:1008600031054105510579F7309761F0019000207D
:10087000E9F73197AF014A195B09B50186E191E0CB
:100880000E94FA0042E050E062E171E086E191E00E
:100890000E94FA000E94D5004B015C0188EC482EB2
:1008A000512C612C712C0E94D500DC01CB018819E0
:1008B0009909AA09BB09883E9340A105B10598F39F
:1008C000F1E04F1A51086108710828EE820E23E00A
:1008D000921EA11CB11C411451046104710419F74A
:1008E0000E9400023ACFAA1BBB1B51E107C0AA1FFE
:1008F000BB1FA617B70710F0A61BB70B881F991FC1
:100900005A95A9F780959095BC01CD010895A1E273
:100910001A2EAA1BBB1BFD010DC0AA1FBB1FEE1F79
:10092000FF1FA217B307E407F50720F0A21BB30BC4
:10093000E40BF50B661F771F881F991F1A9469F740
:1009400060957095809590959B01AC01BD01CF019C
:100950000895EE0FFF1F0590F491E02D099481E0BA
:0C09600090E0F8940C94B404F894FFCFDD
:10096C00000000009101FA002801DE015901370155
:06097C004B010D0A000012
:00000001FF
